:020000040800F2
:10000000781500209D010008394500084B3700088D
:100010003545000845030008917300080000000002
:100020000000000000000000000000002152000855
:1000300009040008000000003946000823520008A7
:10004000B7010008B7010008B7010008B7010008B0
:10005000B7010008B70100080B040008B701000849
:10006000B7010008B7010008B7010008B701000890
:10007000B7010008B7010008E9030008F903000808
:10008000B7010008B7010008B7010008B701000870
:10009000B7010008B7010008B701000815040008FF
:1000A000B701000839530008B7010008B70100087C
:1000B000B7010008B7010008B7010008B701000840
:1000C000B7010008B7010008B7010008A5510008F2
:1000D000B5510008B7010008B7010008B7010008D2
:1000E000B7010008B7010008B7010008B701000810
:1000F000B7010008B7010008B7010008B701000800
:10010000B7010008B7010008B7010008C551000891
:10011000B7010008B7010008B7010008B7010008DF
:10012000B7010008B7010008B7010008B7010008CF
:10013000B70100084903000859030008B701000887
:10014000B7010008B7010008B701000875450008AD
:10015000B7010008B7010008B7010008B70100089F
:100160006137000851370008B7010008B7010008DF
:10017000B7010008B7010008B7010008000000003F
:10018000B7010008B7010008DFF80CD000F03CF818
:1001900000480047B37300087815002006488047E0
:1001A00006480047FEE7FEE7FEE7FEE7FEE7FEE75C
:1001B000FEE7FEE7FEE7FEE7E952000889010008D6
:1001C00040EA01039B0703D009E008C9121F08C0D9
:1001D000042AFAD203E011F8013B00F8013B521E59
:1001E000F9D27047D2B201E000F8012B491EFBD2D0
:1001F00070470022F6E710B513460A460446194632
:10020000FFF7F0FF204610BD064C074D06E0E06802
:1002100040F0010394E8070098471034AC42F6D34D
:10022000FFF7B6FF707400089074000870B58C1862
:1002300010F8015B15F0070301D110F8013B2A11FA
:1002400006D110F8012B03E010F8016B01F8016BE7
:100250005B1EF9D12B0705D40023521E0DD401F8E3
:10026000013BFAE710F8013BCB1A921C03E013F8AC
:10027000015B01F8015B521EF9D5A142D8D30020E1
:1002800070BD000070B504460E4614B16FF0010554
:100290001CE00F4850F824003040B04214D104EB69
:1002A00044020C4B03EB82020B4B53F8263052F8FE
:1002B00023201168094A52F82400884710B16FF0D2
:1002C000040503E0002501E06FF00105284670BD3C
:1002D0003C000020D8040020240000202000002042
:1002E0002DE9F04104460E46174614B16FF00105A2
:1002F0001DE0104850F824003040B04215D104EB06
:1003000044010D4B03EB81010C4B53F8263051F89F
:100310002310CA690A4951F824003946904710B1A0
:100320006FF0040503E0002501E06FF001052846A9
:10033000BDE8F0813C000020D8040020240000200B
:100340002000002000BFFEE710B5024800F04AFB85
:1003500010BD00007401002010B5024800F042FBFF
:1003600010BD0000C80100200146184A914201D189
:1003700000202AE0154A2032914201D1012024E0D8
:10038000124A4032914201D102201EE00F4A6032EF
:10039000914201D1032018E00C4A8032914201D1F0
:1003A000042012E0094AA032914201D105200CE05C
:1003B000064AC032914201D1062006E0034AE032EB
:1003C000914201D1072000E0002070470060014009
:1003D0000246002091B204E001F0010303B1401C89
:1003E00049080029F8D1704710B5024800F022FCF6
:1003F00010BD00008C02002010B5024800F01AFC6D
:1004000010BD0000D4020020704710B5012000F09C
:1004100043FD10BD10B5024800F022FD10BD0000E4
:10042000CC030020704730B504460D460022294613
:10043000204600F001F830BDF0B503460125002448
:100440001148407A01281CDA00200F4E767A0E4FB0
:10045000B8553846467A001D40F82630001F467AC7
:10046000083082553E46707A461C7E72044604F17E
:10047000300008703A2048702F2088700020C87023
:1004800000252846F0BD00006811002070470000DC
:1004900010B504460CB9012010BD2068FFF764FFB9
:1004A000414951F8200008B10120F5E7204600F04D
:1004B00081F83E480068401C3C49086008460068D6
:1004C000012821D13A48006820F08040384908606E
:1004D00008460068A1680843354908600846006876
:1004E00020F47F0008602079012807D108460168C0
:1004F000A089401E41EA00402D4908602C48006850
:1005000040F000402A4908602068006820F47140EB
:1005100021680860D4E904100843A16908432168F0
:1005200009680843216808602068006820F00F000F
:1005300021680860D4E90710084321680968084366
:10054000216808602068806820F45F002168886066
:10055000208D401E616A41EA004021688968084395
:10056000216888602068406800F0070021684860C2
:10057000E06A0102206B41EAC00021684968084333
:10058000216848602068006840F0800021680860A9
:10059000012084F834002068FFF7E6FE024941F8A4
:1005A0002040002078E7000048110020C000002013
:1005B0000060014010B586B00446142101A8FFF781
:1005C00018FE2948006800284CD128480068401CC3
:1005D000264908600846006801280DD100BF24485C
:1005E000006E40F08070224908660846006E00F0F8
:1005F0008070009000BF00BF00BF1D48C06C40F07D
:1006000004001B49C8640846C06C00F00400009058
:1006100000BF00BF00BF0846C06C40F00200C864C5
:100620000846C06C00F00200009000BF00BF04202C
:100630000190022002900390032004900620059070
:1006400001A90C4800F036FC4FF4806001900220B4
:1006500002900390032004900620059001A906480B
:1006600000F028FC06B010BDBC000020B80000203F
:10067000001002400008004800040048704770471E
:1006800070B504460D46002694F84C0098B194F8D5
:100690004C00FF280FD0A8B2216808612846FFF758
:1006A00097FE606494F84000012801D1606C00E07E
:1006B0000120A06400E00126304670BD70B50346FD
:1006C000002093F84C4004B393F84C40FF2C1CD00E
:1006D0001C6824680E4D2C401D682C60012A0AD12C
:1006E0001C6824680D0C2D04960446EA05252C434D
:1006F0001D682C6007E01C6824680D0C2D0444EA7A
:1007000005241D682C601A6300E0012070BD000004
:10071000FFFFFBF87047000010B504460CB901203C
:1007200010BD49492068884207D16068012802D07D
:10073000E068012801D10120F2E7002020630120B8
:100740006064A06400202065204600F083F82068E3
:10075000006820F4002021680860207A012806D172
:100760002068006840F000502168086005E02068BB
:10077000006820F0005021680860607A012806D1E6
:100780002068006840F400102168086005E02068D7
:10079000006820F40010216808602068006846F2B4
:1007A0000871884321680860E068022805D1206844
:1007B00001686069014320680160207C012806D13E
:1007C0002068006840F010002168086005E020689B
:1007D000006820F0100021680860607C012806D1C4
:1007E0002068006840F020002168086005E020686B
:1007F000006820F0200021680860206840691349E3
:10080000084021684861208C401EE16941EA0041AE
:10081000606A401E084321684969084321684861AD
:1008200060686063E068A063A069E063207C84F88E
:1008300040002068006840F0010021680860012045
:1008400084F84C0000206BE70061014000FF001CB1
:100850007047000010B586B00446142101A8FFF7C8
:10086000C8FC5648006800285CD155480068401C08
:10087000534908600846006801280DD100BF51485F
:10088000006E40F080704F4908660846006E00F028
:100890008070009000BF00BF00BF4A48C06C40F0AD
:1008A00004004849C8640846C06C00F00400009089
:1008B00000BF00BF00BF0846C06C40F00200C86423
:1008C0000846C06C00F00200009000BF00BF04208A
:1008D00001900220029003900320049006200590CE
:1008E00001A9394800F0E6FA4FF480600190022037
:1008F00002900390032004900620059001A933483C
:1009000000F0D8FA002204213D2000F0D4FD3D2063
:1009100000F0C4FD002205213E2000F0CCFD3E2069
:1009200000F0BCFD2A49206888421FD129482A4985
:10093000086000204860002127488160C160802154
:10094000016189004161890081610021C161016209
:1009500000F0F0F908B1FFF765FD00BF1E48E06246
:10096000846200BF00BFA062846200BF184980316A
:100970002068884220D117481430184908600020A8
:100980004860002115488160C160802101618900B3
:100990004161890081610021C161016200F0CAF9F1
:1009A00008B1FFF73FFD00BF0C48E062846200BF62
:1009B00000BFA062846200BF06B010BDBC00002072
:1009C000B800002000100240000800480004004861
:1009D00000610140440002408C020020D40200204B
:1009E000704700002DE9F0470446206885682068BC
:1009F000466805F0080058B106F0080040B108202C
:100A00002168C860012020652046FFF783FEDDE0F5
:100A100005F0040058B106F0040040B1042021683C
:100A2000C860022020652046FFF774FECEE005F086
:100A30000200D8B106F00200C0B12046FFF7D0FF97
:100A4000206B0028E3D1606B0028E0D1206840686B
:100A500020F002002168486094F84C00022801D17F
:100A6000012000E0032084F84C00AFE005F0010015
:100A700028B306F0010010B32046FFF7E9FEA06C92
:100A8000401EA064A06C0028C1D1A06B70B9206882
:100A9000406820F001002168486094F84C00032869
:100AA00001D1012000E0022084F84C0094F84000BD
:100AB000012801D1606C00E00120A06486E005F00F
:100AC000100070B306F0100058B300272068D0F86B
:100AD000288008F0FF0008B1012000E000208146D6
:100AE000B9F1000F01D14FEA182802E07F1C4FEA4C
:100AF000580808F0010008B9072FF7D3B9F1000F23
:100B000005D107F10800012101FA00F001E0012000
:100B1000B8402168C8624A4639462046FFF7AFFD13
:100B200054E0FFE72A49206888422BD105F47F0072
:100B300040B306F0400028B3002720688068C0F367
:100B400007481CE008F00100B0B1224850F8270027
:100B500090B1204850F827000068006800F040007D
:100B600050B107F11000012181402068C16019498E
:100B700051F82700FFF78AFC7F1C4FEA5808082F1E
:100B8000E0D323E01249206888421FD105F07F405E
:100B9000E0B106F02000C8B10027206880684FEA65
:100BA000106802E07F1C4FEA580808F0010008B9FD
:100BB000072FF7D307F11800012181402068C16099
:100BC000044951F82700FFF759FD00BFBDE8F08741
:100BD000006101404811002070B50446002594F8DA
:100BE0002500022803D00420E063012520E02068CE
:100BF000006820F00E00216808602068006820F07E
:100C000001002168086094F8440000F01C010120F4
:100C10008840216C4860012084F8250000BF002036
:100C200084F8240000BFA06B10B12046A16B884758
:100C3000284670BD70B50446206C056820680668BB
:100C400094F8440000F01C01042088402840E0B1E2
:100C500006F00400C8B12068006800F0200028B940
:100C60002068006820F004002168086094F84400BF
:100C700000F01C0104208840216C4860206B002893
:100C800056D02046216B884752E094F8440000F08B
:100C90001C0102208840284018B306F0020000B36F
:100CA0002068006800F0200040B92068006820F04B
:100CB0000A0021680860012084F8250094F84400A7
:100CC00000F01C0102208840216C486000BF002019
:100CD00084F8240000BFE06A50B32046E16A8847E8
:100CE00026E094F8440000F01C01082088402840C9
:100CF000F0B106F00800D8B12068006820F00E00BE
:100D00002168086094F8440000F01C01012088402C
:100D1000216C48600120E06384F8250000BF0020BA
:100D200084F8240000BF606B10B12046616B8847D7
:100D300070BD000010B5014609B9012010BD3E4B41
:100D4000086898420BD23D4B0868C01A1423B0FBC8
:100D5000F3F0800048643948083808640AE0364BEC
:100D60000868C01A1423B0FBF3F0800048643248CE
:100D700008380864022081F825000868026847F6F0
:100D8000F0708243D1E9020318430B6918434B69A1
:100D900018438B691843CB6918430B6A1843024305
:100DA000086802608868B0F5804F3AD0234B083B52
:100DB000086C98421BD1D0F8A80091F8443003F099
:100DC0001C040F23A34098431C4BA033186091F8D8
:100DD000443003F01C0348689840184B083BD3F894
:100DE000A8301843154B083BC3F8A80019E0124877
:100DF000A030006891F8443003F01C040F23A34096
:100E000098430D4BA033186091F8443003F01C0355
:100E100048689840084BA0331B681843064BA03322
:100E200018600020C863012081F82500002081F8A7
:100E3000240000BF82E700000804024008000240CE
:100E400070B5044600F03EF906462546681C00B120
:100E50006D1C00BF00F036F9801BA842FAD370BDAC
:100E600070B50446207800F01F06012000FA06F550
:100E700007480068284048B105480560606808B127
:100E800060688047A06808B1A068804770BD000016
:100E9000140401407047000010B50446044800687F
:100EA000204020B1024804602046FFF7F3FF10BD48
:100EB0001404014078B503460022E5E0012696407F
:100EC0000D6805EA0604002C7DD04D68022D02D085
:100ED0004D68122D13D1D60803F1200555F82600D0
:100EE0005507EE0E0F25B540A8435607F60E0D69BF
:100EF000B5402843D60803F1200545F826001868B8
:100F000056000325B540A8430D7905F003055600AA
:100F1000B540284318604D68012D08D04D68022D5A
:100F200005D04D68112D02D04D68122D13D198684F
:100F300056000325B540A8435600CD68B540284368
:100F40009860586801259540A8430D79C5F30015B0
:100F50009540284358600D7905F00305032D09D10C
:100F6000D86A01259540A8430D79C5F3C005954081
:100F70002843D862D86856000325B540A8435600D8
:100F80008D68B5402843D8604D6805F08055B5F1AF
:100F9000805F78D100BF3F4D2D6E45F001053D4E7D
:100FA000356635462D6E05F00105009500BF00BF82
:100FB0004FEAB635960855F8260095072E0F0F25EF
:100FC000B540A84300E05EE0B3F1904F01D10025A9
:100FD0001EE0314DAB4201D1012519E02F4DAB424E
:100FE00001D1022514E02E4DAB4201D103250FE0C3
:100FF0002C4DAB4201D104250AE02B4DAB4201D16F
:10100000052505E0294DAB4201D1062500E0072565
:101010009607360FB5402843254D960845F826001B
:10102000244D2868A0434D6805F48035B5F5803F10
:1010300000D120431F4D28602D1D2868A0434D6816
:1010400005F40035B5F5003F00D12043194D2D1DA5
:1010500028602D1D2868A0434D6805F48015B5F55E
:10106000801F00D12043134D083528602D1D2868AE
:10107000A0434D6805F40015B5F5001F00D12043CD
:101080000C4D0C352860521C0D68D540002D7FF4A6
:1010900015AF78BD00100240000400480008004869
:1010A000000C0048001000480014004800180048D8
:1010B00008000140000401400AB1816100E0816242
:1010C000704700000148006870470000C40000201D
:1010D000024692F8410020282DD100BF92F840002E
:1010E000012801D102207047012082F8400000BF92
:1010F000242082F841001068006820F00100136885
:1011000018601068006820F4805013681860106838
:1011100000680843136818601068006840F0010018
:1011200013681860202082F8410000BF002082F878
:10113000400000BFD7E70220D5E710B502460B46B6
:1011400092F8410020282AD100BF92F840000128DF
:1011500001D1022010BD012082F8400000BF2420F0
:1011600082F841001068006820F0010014682060D7
:101170001068016821F4706141EA03211068016080
:101180001068006840F0010014682060202082F898
:10119000410000BF002082F8400000BFDAE70220D3
:1011A000D8E7704770472DE9F0410446206885690B
:1011B00020680668C5F3002050B1C6F3C01038B1EE
:1011C000606C40F0010060644FF480702168C86179
:1011D000C5F3802050B1C6F3C01038B1606C40F048
:1011E000080060644FF480602168C861C5F3402046
:1011F00050B1C6F3C01038B1606C40F002006064BA
:101200004FF400702168C861676C07F00B0018B1DB
:101210003946204602F078FBBDE8F08170B50446FF
:101220002068856920680668606B20B132462946CF
:101230002046636B984770BD7047000010B50446A8
:101240000CB9012010BD94F8410028B9002084F8A1
:101250004000204600F056F8242084F84100206821
:10126000006820F0010021680860606820F070606C
:10127000216808612068806820F400402168886047
:10128000E068012805D1A06840F40040216888602A
:1012900004E0A06840F4044021688860E068022807
:1012A00002D18002216848602068406813490843E1
:1012B000216848602068C06820F400402168C86048
:1012C000D4E904010843A16940EA01202168C8600B
:1012D000D4E907010843216808602068006840F0ED
:1012E00001002168086000206064202084F841002B
:1012F0000020206384F8420000BFA3E700800002C2
:101300007047000010B586B00446142101A8FEF70E
:1013100070FF20492068884239D100BF1E48C06C48
:1013200040F004001C49C8640846C06C00F004008A
:10133000009000BF00BF0320019012200290012006
:101340000390032004900420059001A91348FFF79F
:10135000B1FD00BF1048806D40F400000E49886563
:101360000846806D00F40000009000BF00BF00221E
:101370000621482000F09FF8482000F08FF8002256
:101380000F21492000F097F8492000F087F806B0B7
:1013900010BD0000005C0040001002400008004842
:1013A0007047704702480068401C01490860704758
:1013B000C400002010B50024032000F0BDF8002078
:1013C00000F008F808B1012401E000F047F82046D9
:1013D00010BD000070B588B004460025002600222C
:1013E0002146192000F067F8192000F057F800BFD7
:1013F0001648006E40F40060144908660846006E06
:1014000000F40060019000BF00BF02A903A801F032
:101410002FFB01F055FB05460D48B5FBF0F0461ECD
:101420000C480D49086040F2E7310B48C160466046
:1014300000210161816002F05EF820B9064802F0E7
:1014400075F808B070BD0120FBE7000000100240F5
:1014500040420F00002C01400811002008B500BFD9
:101460000D48006E40F001000B4908660846006E0A
:1014700000F00100009000BF00BF00BF0846806D73
:1014800040F0805088650846806D00F080500090E4
:1014900000BF00BF08BD00000010024000BF00F008
:1014A0001F02012191404209920002F1E022C2F89C
:1014B000001100BF70472DE9F05F80460D461646CB
:1014C000002703F03BF8074639462A46334601F029
:1014D0000700C0F1070ABAF1040F02D94FF0040A5D
:1014E00001E0C0F1070AD14600F1040ABAF1070F82
:1014F00002D24FF0000A01E0A0F1030AD4464FF0F7
:10150000010A0AFA09FAAAF1010A0AEA020A0AFA1F
:101510000CFA4FF0010B0BFA0CFBABF1010B0BEAD1
:10152000030B4AEA0B042146404603F00FF800F093
:1015300000B830BCBDE8C09F00BF00F00702064BFA
:1015400019684FF6FF031940044B0B4343EA02218D
:10155000014B196000BF70470CED00E00000FA0578
:1015600001460A680120C1F80004906B40F4003085
:10157000906300207047000001460A680120C1F80E
:10158000FC03002081F8F403906940F00060906152
:10159000506D024B18435065002070470300001047
:1015A00070B504460D4615B1012D2CD116E0206A08
:1015B00038B103F03BFE1548006820F006001349DF
:1015C00008602068D0F8000E20F001002168C1F802
:1015D000000ED4F8040404F0D3FB14E02068D0F823
:1015E000000E40F001002168C1F8000ED4F8040498
:1015F00004F07BFC206A28B10448006840F0060033
:101600000249086000BF00BF70BD000010ED00E09F
:1016100002461068416200207047F0B50346154647
:101620001868446A21B944EA05401E68B06219E0AE
:101630001868806A04EB1044002208E0186800F57E
:10164000827050F8220004EB1044501CC2B2481EB5
:101650009042F3D844EA0547186800F582704E1EA0
:1016600040F826700020F0BD10B50446D4F80404FC
:1016700004F062FA10BD70B504460D46C5EBC50313
:1016800004F13C0101EB8301CA682946D4F8040443
:1016900004F082F970BD70B504460D46C5EBC50374
:1016A00004F5FE7101EB8301CA682946D4F80404ED
:1016B00004F0F2F970BD10B50446D4F8040404F047
:1016C0003EFA10BD70B504460E4606F08000802834
:1016D0000AD106F00F00C0EBC00104F13C0000EBA2
:1016E00081050120687009E006F00F00C0EBC00121
:1016F00004F5FE7000EB81050020687006F00F0015
:10170000287000BF94F8BC03012801D1022070BDED
:10171000012084F8BC0300BF2946206805F00AF9BF
:1017200000BF002084F8BC0300BF00BFEFE770B526
:1017300004460E4606F00F006168884201D9012078
:1017400070BD06F0800080280AD106F00F00C0EBC3
:10175000C00104F13C0000EB81050120687009E044
:1017600006F00F00C0EBC00104F5FE7000EB810530
:10177000002068700020A87006F00F00287000BFDD
:1017800094F8BC03012801D10220D9E7012084F894
:10179000BC0300BF2946206805F00AFB00BF0020FB
:1017A00084F8BC0300BF00BFCAE770B504460D460D
:1017B00000BF94F8BC03012801D1022070BD0120B4
:1017C00084F8BC0300BF05F08000802805D105F037
:1017D0000F01206805F0FEFC02E0206805F0E4FC43
:1017E00000BF002084F8BC0300BF00BFE6E702464C
:1017F00001F00F00C0EBC00302F5FE7000EB8300A8
:10180000008B80B270472DE9F04705460E469046A2
:101810001F464FF0000906F0800080280AD106F02C
:101820000F00C0EBC00105F13C0000EB810401207A
:10183000607009E006F00F00C0EBC00105F5FE7016
:1018400000EB81040020607006F00F002070C4F8E7
:101850000880E770607808B12078E080022F01D11D
:101860000020207100BF95F8BC03012802D102209E
:10187000BDE8F087012085F8BC0300BF2146286839
:1018800004F078FF00BF002085F8BC0300BF484685
:10189000EEE72DE9F04105460E461746984606F05C
:1018A0000F00C0EBC00105F5FE7000EB8104E7609E
:1018B000C4F814800020A061607006F00F00207052
:1018C00006F00F0020B92146286805F08BF903E0E7
:1018D0002146286805F000FB0020BDE8F08170B5C6
:1018E00004460D4605F00F006168884201D90120C9
:1018F00070BD05F0800080280AD105F00F00C0EB14
:10190000C00104F13C0000EB81060120707007E08B
:10191000C5EBC50104F5FE7000EB81060020707078
:101920000120B07005F00F00307000BF94F8BC03C8
:10193000012801D10220DBE7012084F8BC0300BFAD
:101940003146206805F07BFA05F00F0020B904F558
:101950007171206805F010FA00BF002084F8BC0304
:1019600000BF00BFC4E72DE9F04105460E4617460B
:10197000984606F00F00C0EBC00105F13C0000EBFB
:101980008104E760C4F814800020A0610120607029
:1019900006F00F00207006F00F0020B921462868DD
:1019A00005F020F903E02146286805F095FA0020AB
:1019B000BDE8F0812DE9F04F85B004462068049021
:1019C000049D05F1400003900398006802900026F2
:1019D000206805F017FC00287DD1206805F051FC37
:1019E00010B905B000F026BB206805F04AFC00F0F5
:1019F0000200022805D12068406900F00200216839
:101A00004861206805F03DFC00F40020B0F5002F8F
:101A10006BD10026206805F004FC834662E00BF0E1
:101A2000010000285BD0F1B2206805F01DFC814662
:101A300009F0010028B3012105F5306000EB4610E4
:101A40008160F749029888421CD1D5F8080B00F450
:101A5000004038B14FF4004105F5306000EB46100E
:101A6000816013E0D5F8080B00F0200028B1202198
:101A700005F5306000EB46108160F1B22046FFF7BB
:101A80000AFE03E0F1B22046FFF705FE09F0080068
:101A9000082818D1E249029888420BD1D5F8080BE2
:101AA00000F4004030B14FF4004105F5306000EB28
:101AB00046108160204600F01FFC082105F53060CB
:101AC00000EB4610816009F01000102807D11021AA
:101AD00005F5306000E0A0E200EB46108160761C66
:101AE0004FEA5B0BBBF1000F99D1206805F0C9FBF1
:101AF00000F48020B0F5802F60D1206805F087FBCE
:101B00008346002657E00BF00100E8B3F1B22068ED
:101B100005F091FB814609F00100B8B106F00F0114
:101B200001208840019040F634004159019821EA93
:101B3000000040F634014851012105F5106000EB2A
:101B400046108160F1B22046FFF795FD09F00800CC
:101B5000082805D1082105F5106000EB46108160CA
:101B600009F01000102805D1102105F5106000EBD8
:101B70004610816009F04000402807D1402105F55A
:101B8000106000EB461000E012E0816009F00200F6
:101B9000022805D1022105F5106000EB4610816096
:101BA00009F08000802803D13146204602F0EAFC8B
:101BB000761C4FEA5B0BBBF1000FA4D1206805F047
:101BC00060FB00F00040B0F1004F1CD140F6040073
:101BD000405920F0010140F60400415194F8F4030B
:101BE000012807D1002084F8F40300212046FFF7E4
:101BF000D7FC02E0204600F041FB2068406900F07D
:101C0000004021684861206805F03BFB00F400605B
:101C1000B0F5006F0ED140F60800405900F0010009
:101C200010B1204600F08CFB2068406900F4006091
:101C300021684861206805F024FB00F00060B0F1E5
:101C4000006F19D12068406900F000602168486188
:101C500094F8F40368B9012084F8F4032068406D17
:101C6000C0F38300C4F8F80301212046FFF798FC75
:101C700002E0204600F064FB206805F002FB00F45F
:101C80008050B0F5805F72D140F60400405920F0DA
:101C9000010140F6040041511021206805F09AFA34
:101CA0004FF0000827E04FF67F3105F5106000EB9C
:101CB0004810816005F5106000EB4810006820F4C2
:101CC000001105F5106000EB481001604FF67F3100
:101CD00005F5306000EB4810816005F5306000EBE1
:101CE0004810006820F4001105F5306000EB481042
:101CF000016008F1010860684045D4D840F61C0036
:101D0000405940F0011140F61C004151206B70B168
:101D1000D5F8840840F00B01C5F8841840F644005B
:101D2000405940F00B0140F6440041510EE040F6AE
:101D30001400405940F00B0140F614004151001FBF
:101D4000405940F00B014FF401604151D5F80008B3
:101D500020F4FE60C5F8000804F57171206805F0F4
:101D60000BF82068406900F48050216848612068C1
:101D700005F087FA00F40050B0F5005F78D12068D4
:101D800004F060FD2068C06820F470502168C860CD
:101D90000321E1604021616100F08CFE074621498A
:101DA0008F4209D32048874206D22068C06840F499
:101DB00070502168C8607CE01B48874209D31B48EB
:101DC000874206D22068C06840F460502168C8602D
:101DD0006FE01648874209D31548874206D220682B
:101DE000C06840F450502168C86062E010488742E3
:101DF00009D31048874206D22068C06840F440509A
:101E00002168C86055E00B48874217D30A488742CB
:101E100014D22068C06840F430502168C86048E09F
:101E20000A31544FC0ACD800C0E1E4000024F400F3
:101E300080730601A0491A01002D310178488742BC
:101E400009D37848874206D22068C06840F4205001
:101E50002168C8602DE0734887420AD372488742E0
:101E600007D22068C06840F410502168C86020E0A4
:101E700028E06D48874209D36C48874206D2206823
:101E8000C06840F400502168C86012E0674887428B
:101E900009D36748874206D22068C06840F4E05002
:101EA0002168C86005E02068C06840F4C05021681F
:101EB000C860204600F0CCF92068406900F400506A
:101EC00021684861206805F0DCF900F01000102856
:101ED00047D12068806920F010002168886104984B
:101EE000D0F820A00AF00F00C0EBC00104F5FE708E
:101EF00000EB81000090CAF3434002281AD147F654
:101F0000F0700AEA000030B30098CAF30A12C16800
:101F1000049805F0BBF90098C068CAF30A1101449F
:101F20000098C16000988069CAF30A1101440098C2
:101F3000816110E0CAF3434006280CD1082204F561
:101F40007171049805F0A2F900988069CAF30A112A
:101F50000144009881612068806940F01000216888
:101F60008861206805F08DF900F00800082808D184
:101F7000204600F09FF92068406900F008002168C1
:101F80004861206805F07DF900F48010B0F5801FED
:101F900009D1F1B2204600F050F82068406900F401
:101FA000801021684861206805F06BF900F400108A
:101FB000B0F5001F09D1F1B2204600F047F82068C3
:101FC000406900F4001021684861206805F059F963
:101FD00000F08040B0F1804F08D12046FFF744FB6D
:101FE0002068406900F0804021684861206805F061
:101FF00048F900F0040004280FD12068D0F804A0AC
:102000000AF00400042802D12046FFF754FB2068A0
:10201000406840EA0A002168486000BFE1E400002F
:10202000002D310140A44C0100366E0120ABA60109
:102030000048E80130BCBDE8C08F70B504460D46CD
:102040002946D4F8040403F005FE70BD70B50446BB
:102050000D462946D4F8040403F0FFFD70BD30B5E9
:102060008BB0044614B901200BB030BD94F8BD0309
:1020700028B9002084F8BC03204600F09BF8032018
:1020800084F8BD03206804F0A5FD282204F11001A6
:102090006846FEF795F894E80F0004F0F7FB00217E
:1020A000206805F004F9002531E00121C5EBC502E7
:1020B00004F13C0000EB82004170C5EBC50104F166
:1020C0003C0000F82150C5EBC50100EB8100C58044
:1020D0000021C5EBC50204F13C0000EB8200C17099
:1020E000C5EBC50204F13C0000EB82008160C5EB4A
:1020F000C50204F13C0000EB8200C160C5EBC502E3
:1021000004F13C0000EB82004161681CC5B20F2D58
:10211000CBD300252AE00021C5EBC50204F5FE70F3
:1021200000EB82004170C5EBC50104F5FE7000F8BC
:1021300021500021C5EBC50200EB8200C170C5EB48
:10214000C50204F5FE7000EB82008160C5EBC5029C
:1021500004F5FE7000EB8200C160C5EBC50204F51A
:10216000FE7000EB82004161681CC5B20F2DD2D316
:10217000282204F110016846FEF722F894E80F00C7
:1021800004F05AFC002084F83800012084F8BD03D4
:10219000606A012802D12046FFF7EEF9A06A012803
:1021A00002D12046FFF7DCF9206804F035FC00205E
:1021B0005AE7000010B586B004462068B0F1A04F81
:1021C00042D14FF4C05001900220029000200390B1
:1021D000032004900A20059001A94FF09040FEF7DB
:1021E00069FE00BF1948C06C40F480501749C864AC
:1021F0000846C06C00F48050009000BF00BF084645
:10220000806D00F08050A8B900BF0846806D40F096
:10221000805088650846806D00F08050009000BFB7
:1022200000BF00F0EDF80948806D20F080500749AC
:10223000886501E000F0E4F8002211464320FFF732
:102240003AF94320FFF72AF906B010BD001002400A
:1022500070B504460125E068022801D100BF01E005
:10226000012500BF00BF2946D4F8040403F0A0FDF7
:10227000D4F8040403F056FD70BD000010B5044608
:102280002068D0F8000E20F001002168C1F8000E8F
:10229000206A38B10648006820F00600044908604A
:1022A00002F0C0FFD4F8040403F06AFD10BD000082
:1022B00010ED00E010B50446D4F8040403F067FD07
:1022C00010BD70B504460D4600BF94F8BC0301284C
:1022D00001D1022070BD012084F8BC0300BF84F846
:1022E00038502946206804F0FDFF00BF002084F824
:1022F000BC0300BF00BFEDE710B5044604F57171E3
:10230000D4F8040403F07AFD10BD10B5044600BFF4
:1023100094F8BC03012801D1022010BD012084F8EB
:10232000BC0300BF206804F067FB206804F034FFA2
:1023300000BF002084F8BC0300BF00BFEDE7000031
:1023400010B504462068D0F8000E40F00100216866
:10235000C1F8000ED4F8040403F0C7FD206A28B1C8
:102360000348006840F006000149086010BD000005
:1023700010ED00E00246B2F5007F2AD11D4800684A
:1023800000F4C060B0F5007F32D01A48006820F435
:10239000C06040F40070174B186017480068322383
:1023A0005843164BB0FBF3F0411C00E0491E1148A6
:1023B000406900F48060B0F5806F01D10029F5D14B
:1023C0000C48406900F48060B0F5806F10D10320A4
:1023D00070470848006800F4C060B0F5806F07D00F
:1023E0000448006820F4C06040F48060014B18602D
:1023F0000020EDE700700040C800002040420F00C0
:102400000348406840F4806001494860704700001C
:10241000007000400248006800F4C060704700008F
:10242000007000402DE9F84304460025A8462088A6
:1024300000F40060B0F5006F30D1606E80B1B0F58F
:10244000800F13D0B0F5000F03D0B0F5400F15D1B9
:1024500013E0FB48C06840F48030F949C8600FE0E1
:102460000021201D02F0EAF8054609E0002104F1F0
:10247000200002F0A9F9054602E001E0012500BFB5
:1024800000BF55B9EE488830006820F44000616E06
:102490000843EB49C1F8880000E0A846208800F412
:1024A0008050B0F5805F30D1A06E80B1B0F1807FF8
:1024B00013D0B0F1007F03D0B0F1407F15D113E00D
:1024C000DF48C06840F48030DD49C8600FE000217B
:1024D000201D02F0B3F8054609E0002104F12000B8
:1024E00002F072F9054602E001E0012500BF00BFDD
:1024F00055B9D3488830006820F04070A16E084379
:10250000CF49C1F8880000E0A846206800F40030F8
:10251000B0F5003F77D14FF00009C948806D012127
:1025200021EA107078B100BFC548806D40F080503E
:10253000C34988650846806D00F08050009000BF58
:1025400000BF4FF00109BF48006840F48070BD49EA
:102550000860FEF7B7FD074606E0FEF7B3FDC01BB7
:10256000022801D9032505E0B648006800F4807010
:102570000028F2D000BF85BBB1489030006800F45D
:102580004076D6B1D4F88400B04216D0AC48903032
:10259000006820F44076AA48D0F8900040F48030DB
:1025A000A749C1F890000846D0F8900020F4803088
:1025B000C1F890000846C0F8906006F00100A8B18C
:1025C000FEF780FD074609E0FEF77CFDC01B41F2E7
:1025D0008831884202D9032507E017E098489030F7
:1025E000006800F002000028EED000BF65B99448F2
:1025F0009030006820F44070D4F88410084390496B
:10260000C1F8900003E00CE0A84600E0A846B9F14C
:10261000010F05D18A48806D20F080508849886577
:1026200000BF207800F0010048B18548883000687C
:1026300020F00300A16B08438149C1F8880020788D
:1026400000F00200022809D17D488830006820F09F
:102650000C00E16B08437A49C1F88800207800F04B
:102660000400042809D176488830006820F0300042
:10267000216C08437249C1F88800207800F00800F6
:10268000082809D16E488830006820F0C000616CCD
:1026900008436B49C1F88800207800F0100010282A
:1026A00009D167488830006820F44070A16C084365
:1026B0006349C1F88800207800F02000202809D163
:1026C0005F488830006820F44060E16C08435C4952
:1026D000C1F88800208800F40070B0F5007F09D1AF
:1026E00057488830006820F44020E16D0843544981
:1026F000C1F88800208800F48060B0F5806F09D1AF
:102700004F488830006820F44010216E08434C493F
:10271000C1F88800207800F04000402809D14848DE
:102720008830006820F44050216D08434449C1F8C6
:102730008800207800F08000802809D14048883047
:10274000006820F44040616D08433D49C1F88800AD
:10275000208800F48070B0F5807F09D13848883037
:10276000006820F44030A16D08433549C1F8880065
:10277000208800F40050B0F5005F1FD13048883049
:10278000006820F04060E16E08432D498831086000
:10279000E06EB0F1006F06D12948C06840F48010A7
:1027A0002749C8600AE0E06EB0F1806F06D10121D0
:1027B000201D01F043FF054605B1A846206800F43E
:1027C0000020B0F5002F1FD11D488830006820F090
:1027D0004060216F08431A4988310860206FB0F1CA
:1027E000006F06D11648C06840F480101449C860D4
:1027F0000AE0206FB0F1806F06D10121201D01F0A9
:102800001DFF054605B1A846206800F48020B0F5FC
:10281000802F24D10A488830006820F04060616F22
:102820000843074988310860606FB0F1006F0BD131
:102830000348C06840F480100149C8600FE0000000
:102840000010024000700040606FB0F1806F06D150
:102850000121201D01F0F2FE054605B1A8462088A1
:1028600000F48040B0F5804F1FD12248006820F06E
:102870004050A16F08431F490860A06FB0F1805F0E
:1028800007D10221201D01F0D9FE05466DB1A846F1
:102890000BE0A06FB0F1005F07D1022104F120002E
:1028A00001F092FF054605B1A846208800F40040DB
:1028B000B0F5004F09D10F48006820F08040E16F6B
:1028C00008430C498839C1F88800206800F480303A
:1028D000B0F5803F0AD10748006820F00040D4F8E6
:1028E0008010084303498839C1F888004046BDE894
:1028F000F8830000881002402DE9F04104460D469F
:1029000014B90120BDE8F0815548006800F00700C7
:10291000A8420ED25248006820F0070028435049D0
:1029200008600846006800F00700A84201D00120B6
:10293000E8E7207800F00100002840D06068032814
:1029400006D14848006800F00070D8B90120D9E7E6
:102950006068022806D14348006800F4003088B956
:102960000120CFE7606830B93E48006800F00200FF
:1029700040B90120C6E73B48006800F4806008B910
:102980000120BFE73748806820F0030061680843F2
:1029900034498860FEF796FB064608E0FEF792FB96
:1029A000801B41F28831884201D90320AAE72D48D3
:1029B000806800F00C006168B0EB810FEED12078E8
:1029C00000F00200022807D12648806820F0F000BD
:1029D000A1680843234988602148006800F0070087
:1029E000A8420ED91E48006820F0070028431C4961
:1029F00008600846006800F00700A84201D00120E6
:102A000080E7207800F00400042807D1154880688A
:102A100020F4E060E168084312498860207800F003
:102A20000800082808D10F48806820F46050216908
:102A300040EAC1000B49886000F054F809498968F0
:102A4000C1F30311084A515C01F01F01C840074956
:102A500008600020FEF7BEFC0746384652E700003B
:102A6000002002400010024010740008C80000203E
:102A70000F2202600D4A926802F0030242600B4A84
:102A8000926802F0F0028260084A926802F4E06202
:102A9000C260064A926802F46052D2080261044A97
:102AA000126802F007020A6070470000001002403E
:102AB000002002400148006870470000C800002064
:102AC00000B5FFF7F7FF05498968C1F3C221044A41
:102AD000515C01F01F01C84000BD00000010024021
:102AE000207400082DE9F04100240020DFF800C127
:102AF000DCF808C00CF00C01DFF8F4C0DCF80CC006
:102B00000CF0030719B10C291ED1012F1CD1DFF8DD
:102B1000E0C0DCF800C00CF0080CBCF1000F06D1DE
:102B2000DFF8CCC0DCF894C0CCF3032405E0DFF878
:102B3000C0C0DCF800C0CCF30314DFF8B8C05CF808
:102B4000244041B9204606E0042901D12A4802E088
:102B5000082900D129480C2947D1DFF894C0DCF8B6
:102B60000CC00CF00305DFF888C0DCF80CC0CCF317
:102B7000021C0CF10103012D1FD0022D02D0032DE8
:102B80001AD10CE0DFF870C0BCFBF3FCDFF860800A
:102B9000D8F80C80C8F306280CFB08F218E0DFF820
:102BA0005CC0BCFBF3FCDFF84880D8F80C80C8F3AD
:102BB00006280CFB08F20BE000BFB4FBF3FCDFF8C7
:102BC0003080D8F80C80C8F306280CFB08F200BF50
:102BD00000BFDFF81CC0DCF80CC0CCF3416C0CF17A
:102BE000010C4FEA4C06B2FBF6F0BDE8F0810000A4
:102BF00000100240287400080024F40000127A003B
:102C00002DE9F843044614B90120BDE8F883F848DB
:102C1000806800F00C06F648C06800F003072078D2
:102C200000F01000102875D11EB10C2E74D1012FA8
:102C300072D1EF48006800F0020018B1A06908B92D
:102C40000120E2E7EA48216A006800F0080020B1AC
:102C5000E748006800F0F00005E0E54894300068BF
:102C600000F47060000981421FD9206A01F05EFE05
:102C700008B10120C9E700BFDD48006840F0080046
:102C8000DB4908600846006820F0F000216A08432C
:102C9000D749086000BF0846406820F47F40E169DA
:102CA00040EA0120D24948601EE000BFD0480068D9
:102CB00040F00800CE4908600846006820F0F000A7
:102CC000216A0843CA49086000BF0846406820F4EA
:102CD0007F40E16940EA0120C5494860206A01F06F
:102CE00025FE08B1012090E7FFF7FCFEC049896886
:102CF000C1F30311BF4A515C01F01F01C840BE4936
:102D000008600020FEF766FB8046B8F1000F4ED049
:102D100040467AE74BE0FFE7A06980B3B44800681B
:102D200040F00100B2490860FEF7CCF9054606E024
:102D3000FEF7C8F9401B022801D9032065E7AC481B
:102D4000006800F002000028F2D000BFA848006828
:102D500040F00800A64908600846006820F0F0002E
:102D6000216A0843A249086000BF0846406820F471
:102D70007F40E16940EA01209D49486017E0FFE794
:102D80009B48006820F0010099490860FEF79AF915
:102D9000054606E0FEF796F9401B022801D90320FC
:102DA00033E79348006800F002000028F2D1207851
:102DB00000F0010000285CD0082E03D00C2E0AD1B0
:102DC000032F08D18A48006800F4003088B3606897
:102DD00078BB012019E700BF6068B0F5803F06D1DD
:102DE0008348006840F48030814908601AE06068D8
:102DF000B0F5A02F0BD17E48006840F480207C49BC
:102E000008600846006840F4803008600AE07848AE
:102E1000006820F48030764908600846006820F495
:102E20008020086000BF606890B1FEF74BF905464E
:102E300007E01EE0FEF746F9401B642801D9032095
:102E4000E3E66B48006800F400300028F2D010E0A0
:102E5000FEF738F9054606E0FEF734F9401B642812
:102E600001D90320D1E66248006800F40030002850
:102E7000F2D1207800F00200022852D1042E03D0B3
:102E80000C2E14D1022F12D15948006800F4806032
:102E900018B1E06808B90120B7E65548406820F04D
:102EA000F850217C40EA01605149486039E0E0680F
:102EB00000B34F48006840F480704D490860FEF749
:102EC00001F9054606E0FEF7FDF8401B022801D98E
:102ED00003209AE64648006800F480600028F2D09B
:102EE0004348406820F0F850217C40EA01604049A6
:102EF000486016E03E48006820F480703C49086055
:102F0000FEF7E0F8054606E0FEF7DCF8401B022875
:102F100001D9032079E63648006800F48060002873
:102F2000F2D1207800F00800082836D16069D0B1CD
:102F30002F489430006840F001002D49C1F89400FA
:102F4000FEF7C0F8054606E0FEF7BCF8401B022875
:102F500001D9032059E626489430006800F00200A9
:102F60000028F1D019E022489430006820F00100D8
:102F70001F49C1F89400FEF7A5F8054606E0FEF7E4
:102F8000A1F8401B022801D903203EE618489430DE
:102F9000006800F002000028F1D1207800F0040061
:102FA000042870D14FF000091148806D00F0805066
:102FB00078B900BF0E48806D40F080500C4988659C
:102FC0000846806D00F08050009000BF00BF4FF0B9
:102FD00001090A48006800F48070F0B907480068E9
:102FE00040F4807005490860FEF76CF805460EE075
:102FF0000010024010740008C8000020007000405B
:10300000FEF760F8401B022801D90320FDE57C484B
:10301000006800F480700028F2D000BFA06801288A
:1030200008D17848006840F0010076499039C1F82D
:10303000900021E0A06805280FD17248006840F098
:10304000040070499039C1F890000846D0F890000B
:1030500040F00100C1F890000EE06A48006820F0DE
:10306000010068499039C1F890000846D0F89000F6
:1030700020F00400C1F8900000BFA068A0B1FEF7E6
:1030800021F8054609E02EE0FEF71CF8401B41F24E
:103090008831884201D90320B7E55A48006800F01A
:1030A00002000028F0D012E0FEF70CF8054608E018
:1030B000FEF708F8401B41F28831884201D903200D
:1030C000A3E55048006800F002000028F0D1B9F1F3
:1030D000010F07D14B489038806D20F0805049494E
:1030E0009039886500BFA06AF0B30C2E74D0A06A36
:1030F000022853D143489038006820F0807041493D
:1031000090390860FDF7DEFF054606E0FDF7DAFFBF
:10311000401B022801D9032077E53A48903800681F
:1031200000F000700028F1D1206B401E0101606B9F
:1031300041EA0021A06B000941EA4040E16A0843EE
:10314000A18F0122C2EB510140EA41514020005DB4
:10315000C2EB500041EA40602A499039C8600846F5
:10316000006840F0807000E048E008600846C068F1
:1031700040F08070C860FDF7A5FF054606E0FDF74A
:10318000A1FF401B022801D903203EE51D489038CD
:10319000006800F000700028F1D02FE01948903846
:1031A000006820F080701749903908600846006870
:1031B00000F0205020B90846C06820F00300C86025
:1031C00010489038C068104908400E499039C860CE
:1031D000FDF778FF054607E00EE0FDF773FF401BA3
:1031E000022801D9032010E506489038006800F055
:1031F00000700028F1D101E0012006E5002004E57F
:103200000070004090100240FFFFEEFE704700008B
:10321000F8B504462068466820688568C5F38010C4
:1032200048B905F0010030B1C6F3801018B120464E
:10323000E16C8847F8BDC5F3400030B1C6F3C0105B
:1032400018B12046216D8847F4E7C5F3401030B926
:10325000C5F3801018B9C5F3002000287CD0C6F350
:10326000401000287DD0C5F38010F0B194F85D00C7
:1032700003280ED0206E40F00400206600BF00201E
:1032800000902068C068009020688068009000BFAF
:103290000BE000BF002000902068C068009020680C
:1032A0008068009000BF00BFC4E7C5F3401088B13C
:1032B000206E40F00100206600BF002000902068D2
:1032C000806800902068006820F040002168086055
:1032D00000BF00BFC5F3002058B1206E40F00800C9
:1032E000206600BF0020009020688068009000BF2A
:1032F00000BF206E78B32068406820F0E0002168AD
:103300004860012084F85D0006F00200022802D027
:1033100006F0010008B32068406820F0030021682F
:103320004860A06D50B11048A16D8863A06DFDF795
:1033300053FC18B1206E40F040002066606D50B123
:103340000948616D8863606DFDF746FC18B1206E19
:1033500040F04000206603E003E02046FFF756FF00
:1033600068E700BF66E70000D551000870B5044665
:103370000CB9012070BD606A00B900BF0021A162D4
:1033800094F85D0028B9002084F85C00204600F025
:103390004DF8022084F85D002068006820F04000AD
:1033A00021680860E068B0F5E06F01D9002501E010
:1033B0004FF48055E068B0F5706F05D0E068B0F567
:1033C000E06F01D00021A162206B40B9E068B0F548
:1033D000E06F02D90221216301E001212163D4E9D8
:1033E000010108432169084361690843218B01F405
:1033F00000710843E1690843216A0843A16A084350
:10340000216808600421A06901EA1040616A08434C
:10341000616B0843E1680843284321684860002045
:103420002066012084F85D000020A3E710B586B077
:103430000446142101A8FCF7DCFE2A4920688842D2
:103440004DD100BF2848806D40F400402649886572
:103450000846806D00F40040009000BF00BF00BF30
:103460000846C06C40F00100C8640846C06C00F01B
:103470000100009000BF00BF00BF0846C06C40F0D4
:103480000200C8640846C06C00F00200009000BF53
:1034900000BF4FF4004001900220029000200390F2
:1034A000032004900620059001A94FF09040FDF7FD
:1034B00001FD38200190022002900020039003209B
:1034C00004900620059001A90848FDF7F3FC0022AE
:1034D00003213320FDF7EFFF3320FDF7DFFF06B0B8
:1034E00010BD0000003C00400010024000040048F5
:1034F00070477047704710B504460CB9012010BDE5
:1035000094F83D0028B9002084F83C00204600F0E3
:103510000CF8022084F83D00211D206801F014FF02
:10352000012084F83D000020E9E770470146086863
:10353000C06840F001000A68D060086880680B4AE3
:103540001040062805D0086880681040B0F5803F1C
:1035500001D1012000E0002028B90868006840F08F
:1035600001000A6810600020704700000700010099
:10357000704710B5044620680069C0F34000D8B118
:103580002068C068C0F34000B0B16FF0020021684D
:103590000861012020772068806900F0030018B1DD
:1035A0002046FFF7E5FF05E0204600F0BEF8204684
:1035B00000F0BCF80020207720680069C0F380008C
:1035C000D8B12068C068C0F38000B0B16FF00400CB
:1035D00021680861022020772068806900F440702B
:1035E00018B12046FFF7C4FF05E0204600F09DF823
:1035F000204600F09BF80020207720680069C0F387
:10360000C000D8B12068C068C0F3C000B0B16FF08E
:10361000080021680861042020772068C06900F054
:10362000030018B12046FFF7A3FF05E0204600F095
:103630007CF8204600F07AF80020207720680069A6
:10364000C0F30010D8B12068C068C0F30010B0B15A
:103650006FF0100021680861082020772068C06999
:1036600000F4407018B12046FFF782FF05E02046C5
:1036700000F05BF8204600F059F800202077206821
:10368000006900F0010058B12068C06800F0010036
:1036900030B16FF0010021680861204600F048F861
:1036A00020680069C0F3C01058B12068C068C0F33A
:1036B000C01030B16FF08000216808612046FFF72C
:1036C00018FF20680069C0F3002058B12068C06866
:1036D000C0F3C01030B16FF48070216808612046DB
:1036E000FFF706FF20680069C0F3801058B120681A
:1036F000C068C0F3801030B16FF0400021680861ED
:10370000204600F021F820680069C0F3401058B14D
:103710002068C068C0F3401030B16FF0200021680D
:1037200008612046FFF7E6FE10BD704770470000B5
:1037300010B5044603492068884201D1FDF732FEE6
:1037400010BD0000002C0140704700BFFEE70000E4
:1037500010B50248FDF727FD10BD00001C03002036
:1037600010B50248FDF75AFD10BD00001C030020F3
:1037700070B50546AC6A0020A16B8863E16B886375
:1037800094F84100602806D1202084F841002046AA
:10379000FDF707FD02E02046FDF74EFD70BD10B5B8
:1037A0000246002001F001034BB140F0420092F8C4
:1037B000413003F02803282B01D040F0B00001F085
:1037C0000203022B09D140F0440092F8413003F08B
:1037D0002803282B01D040F0B00001F00403042B93
:1037E00001D140F0B80001F01103112B01D140F0DC
:1037F000900001F01203122B01D140F0200001F0E3
:103800001203122B01D140F0400013681B68834360
:103810001468236010BD01688969C1F3400111B1CA
:103820000021026891620168896901F0010129B9EA
:103830000168896941F001010268916170472DE9D1
:10384000F0470446894694F8410000F028002828F3
:1038500050D120688069C0F300472068806900F477
:103860007E00050C20688068C0F309062068C068E7
:1038700000F0FE08E06802282DD105F006000621C0
:1038800001EAE611884216D13546A06C401CA064BE
:10389000A06C022836D10020A06408202168C861ED
:1038A00000BF002084F8400000BF2A463946204669
:1038B000FDF778FC26E0454604212046FFF76FFF20
:1038C00000BF002084F8400000BF2A463946204649
:1038D000FDF768FC16E004212046FFF760FF00BFFB
:1038E000002084F8400000BF2A4639462046FDF7F4
:1038F00059FC07E008202168C86100BF002084F857
:10390000400000BFBDE8F08770B504460E4694F84D
:103910004150002084F842003F48E062002060856A
:10392000606C30436064282D03D0292D01D02A2DEE
:103930000BD103212046FFF732FF282084F84100F5
:1039400000202063354860630DE007212046FFF723
:1039500026FF94F84100602802D0202084F841001E
:103960000020206360632068006800F48040B0F5A8
:10397000804F19D12068006820F4804021680860D9
:10398000A06B002847D02648A16B886300BF0020A9
:1039900084F8400000BFA06BFDF71EF900283AD064
:1039A000A06B816B884736E02068006800F4004017
:1039B000B0F5004F17D12068006820F4004021685E
:1039C0000860E06B38B31648E16B886300BF0020E5
:1039D00084F8400000BFE06BFDF7FEF8D8B1E06B63
:1039E000816B884717E094F8410060280BD12020B4
:1039F00084F8410000BF002084F8400000BF20464A
:103A0000FDF7CFFB07E000BF002084F8400000BFB7
:103A10002046FDF711FC70BD0000FFFF133C0008BD
:103A20007137000870B504460D461848E062002062
:103A30002063202084F84100002084F84200606365
:103A4000C5F3800090B12068406A616A0870606ABE
:103A5000401C6062208D48B1208D401E2085608D05
:103A6000401E6085606C40F00400606407212046C1
:103A7000FFF795FE10202168C86100BF002084F880
:103A8000400000BF2046FDF73BFC70BD0000FFFF7B
:103A900070B504460D462068066820202168C8617C
:103AA00008202168C86107212046FFF778FE2068BA
:103AB000406840F4004021684860206840683A4906
:103AC0000840216848602046FFF7A5FEC6F3803015
:103AD00030B1A06B68B1A06B00684068608508E0F9
:103AE000C6F3C03028B1E06B18B1E06B00684068E5
:103AF0006085C5F3800070B12068406A616A087013
:103B0000606A401C6062208D28B1208D401E208597
:103B1000608D401E6085608D18B1606C40F00400BF
:103B200060640020206384F842006063606C60B1D0
:103B3000616C2046FFF7E8FE94F84100282831D157
:103B400029462046FFF76EFF2CE0E06A10F5803F23
:103B50000DD01648E062202084F8410000BF00200C
:103B600084F8400000BF2046FDF7CAFB1AE094F835
:103B7000410022280BD1202084F8410000BF002002
:103B800084F8400000BF2046FDF70AFC0AE0202030
:103B900084F8410000BF002084F8400000BF2046A8
:103BA000FDF7FFFB70BD000000E800FE0000FFFF16
:103BB00010B50446002084F8420094F841002928FA
:103BC00011D1282084F841002120206301212046C2
:103BD000FFF7E5FD00BF002084F8400000BF20464D
:103BE000FDF7DFFB14E094F841002A2810D12820CB
:103BF00084F841002220206302212046FFF7CFFDF8
:103C000000BF002084F8400000BF2046FDF7C8FB3D
:103C100010BD2DE9F04104460E461746E56A00BF87
:103C200094F84000012802D10220BDE8F081012073
:103C300084F8400000BFC6F30010A8B3C7F300101B
:103C400090B3608D00BB94F84100282807D1B5F1EE
:103C5000007F04D131462046FFF7E4FE6BE094F884
:103C6000410029280CD115F5803F09D0102021688A
:103C7000C8612046FFF7CFFD2046FFF799FF5AE0C5
:103C800010202168C86156E010202168C861606C6E
:103C900040F00400606415B1B5F1807F4BD1616CD8
:103CA0002046FFF731FE46E0FFE7C6F38000D0B1C3
:103CB000C7F38000B8B1608D60B12068406A616A66
:103CC0000870606A401C6062208D401E2085608DF7
:103CD000401E6085608D30BB15F5803F2BD020469F
:103CE000FFF766FF27E0C6F3C00038B1C7F3C00096
:103CF00020B131462046FFF7A2FD1CE0C6F340008C
:103D000088B1C7F3400070B1608D68B1606A007817
:103D100021688862606A401C6062608D401E608518
:103D2000208D401E208506E0B5F1807F00D015B9BA
:103D30002046FFF73DFFC6F3401030B1C7F34010F7
:103D400018B131462046FFF7A3FE00BF002084F8DB
:103D5000400000BF00BF68E770B50546D5F8904247
:103D60004FF40670005D48B94FF40570005928B152
:103D7000607A18B90121284602F077F88121284697
:103D800002F073F8607A022806D11F2304F503724B
:103D90000121284601F095FF70BD000070B5054671
:103DA000D5F890424FF4047001594FF40C70015152
:103DB0004FF4057001594FF40D700151012128464F
:103DC00001F0ECFE1F2810D12A49D4F80C028842D9
:103DD0000BD140F21920005D012806D84815005D7E
:103DE00018B14815005D10280DD940F21920015D69
:103DF00020230522284601F0C4F8022060722846DC
:103E0000FFF7AAFF33E040F21920015D04F21B2204
:103E1000284600F051FE00280BDA207A052804D14C
:103E20000121284600F0C0F821E02846FFF794FF62
:103E30001DE0207A022819D0207A012816D0207A95
:103E4000032813D0608930B1628904F10C0128463F
:103E500000F0C8F80BE0608920B90021284600F086
:103E6000A3F804E02846FFF777FF00E070BD00BF2D
:103E7000FCE700005553424370B506460D46D6F8A0
:103E80009042607A022806D18121304601F0EDFF90
:103E9000002060720CE005F08000802807D1607A75
:103EA000012804D00121304600F07EF800E070BD0A
:103EB00000BFFCE770B505460E46D5F89042207A63
:103EC000022804D0032812D0042815D10EE040F2B5
:103ED0001920015D04F21B22284600F0EDFD0028A8
:103EE00003DA0121284600F05FF806E000BF002158
:103EF000284600F059F800E000BF00BF70BD70B563
:103F000005460E46D5F89042207A10B1012813D10B
:103F100003E02846FFF742FF0FE040F21920015D61
:103F200004F21B22284600F0C7FD002803DA012115
:103F3000284600F039F800E000BF00BF70BDD0F89F
:103F4000901200220A72704770B50546D5F890426B
:103F500000202072607284F85D0284F85C02D5F85B
:103F600094020168002088470121284601F0F4FDF1
:103F70008121284601F0F0FD1F2304F50372012181
:103F8000284601F09EFE70BD70B50546D5F89042FA
:103F900000202072012060721F2304F503720121AA
:103FA000284601F08EFE70BD70B505460E46D5F868
:103FB00090420B48C4F82C024FF40E7006550020B6
:103FC00020720D2304F50B728121284601F097FF22
:103FD0001F2304F503720121284601F072FE70BD13
:103FE000555342532DE9F04106460F461546D6F883
:103FF00090424FF405700059A84203D24FF4057067
:10400000005900E028461FFA80F84FF40D7000595F
:10401000411B4FF40D7001510021001D015504207A
:10402000207243463A468121304601F068FFBDE8E0
:10403000F08170477047000010B54F484F49086045
:104040000020486000214D48017201214172002189
:10405000C160017401214174002141614FF400519C
:1040600081618904C1614021016201214162FCF743
:1040700053FB08B1FCF7D6F93F488030404908604F
:104080000020486000213E48017201214172C16058
:104090000021017401214174002141614FF400515C
:1040A00081618904C1614021016201214162FCF703
:1040B00033FB08B1FCF7B6F92F48403831490860A6
:1040C0000120087100212F4881600221C160002178
:1040D000016141614FF4807181610121C16104215D
:1040E00001624FF440014162012181620021C162FD
:1040F0000163FCF7CDF908B1FCF794F91E482038AC
:10410000214908600120087100211F4881600221B7
:10411000C1600021016141618161C16104210162CD
:104120004FF440014162012181620021C1620163BB
:10413000FCF7AEF908B1FCF775F9012213490F48F5
:10414000FCF7BCFA08B1FCF76DF910490B48FCF715
:1041500097FA08B1FCF766F901220D490848FCF707
:10416000ADFA08B1FCF75EF909490548FCF788FA91
:1041700008B1FCF757F910BD00610140740100203F
:10418000C80100201C02002054020020800007000B
:104190004000060008B500BF0E48806C40F00100EA
:1041A0000C4988640846806C00F00100009000BF54
:1041B00000BF002211460E20FDF77DF90E20FDF70D
:1041C0006DF9002211460F20FDF775F90F20FDF75C
:1041D00065F908BD0010024010B503490348FCF71B
:1041E00022F90349087010BD1900002004000020C6
:1041F0001800002000B587B0142102A8FBF7F9FFD2
:1042000000BF6D48C06C40F004006B49C8640846AC
:10421000C06C00F00400019000BF00BF00BF084662
:10422000C06C40F08000C8640846C06C00F080009C
:10423000019000BF00BF00BF0846C06C40F0010005
:10424000C8640846C06C00F00100019000BF00BFC8
:1042500000BF0846C06C40F00200C8640846C06C4D
:1042600000F00200019000BF00BF00BF0846C06C14
:1042700040F00800C8640846C06C00F008000190D7
:1042800000BF00BF002201214C48FCF715FF0022AF
:1042900010214FF09040FCF70FFF002241F2840103
:1042A0004748FCF709FF4FF6D870029003200390AF
:1042B0000020049002A94348FCF7FCFD0120029075
:1042C000039000200490059002A93C48FCF7F2FD01
:1042D00002200290032003900020049002A9374896
:1042E000FCF7E8FD0120029037480390002004907D
:1042F00002A94FF09040FCF7DDFD40F20A700290F9
:10430000032003900020049002A94FF09040FCF796
:10431000D1FD0420029000200390049002A94FF0E8
:104320009040FCF7C7FD1020029001200390002070
:104330000490059002A94FF09040FCF7BBFD2020AF
:104340000290214803900020049002A91D48FCF728
:10435000B1FD40F64330029003200390002004900A
:1043600002A91748FCF7A6FD41F284000290012043
:10437000039000200490059002A91148FCF79AFDD3
:1043800004200290032003900020049002A90F480B
:10439000FCF790FD002211460620FDF78CF8062060
:1043A000FDF77CF8002211461720FDF784F817204E
:1043B000FDF774F807B000BD00100240001C004873
:1043C000000400480008004800001110000C0048DC
:1043D00010B5124812490860124848600021104880
:1043E00081600121C1600021016141618161C16180
:1043F0000162FCF723FF08B1FCF714F8002108481C
:10440000FCF766FE08B1FCF70DF800210448FCF744
:1044100094FE08B1FCF706F810BD0000005C0040F7
:104420001C030020EC9C90107047000010B5022186
:104430000020FBF727FF194A02210020FBF750FF5D
:10444000164890ED000AB8EEC00A1548D0ED000AF3
:1044500020EE200ABDEEC00A124880ED000A0F4887
:1044600090ED010AB8EEC00A0D48D0ED000A20EE2A
:10447000200ABDEEC00A0B4880ED010A074890ED06
:10448000020AB8EEC00A0648D0ED000A20EE200A63
:10449000BDEEC00A034880ED020A10BD14050020DD
:1044A000500000202005002010B511481149086077
:1044B0004FF48270486000210E4881604FF44071D3
:1044C000C1600021016141614FF4802181610021BF
:1044D000C1610162416281620721C1620021016301
:1044E00008214163FEF742FF08B1FBF79BFF10BDB7
:1044F000003C00406803002010B5002209490A482A
:1045000001F0E3F90949084801F0B1FE08490648FD
:1045100001F0B1FD044801F0F1F910B1024801F0D9
:104520006FFF10BD540000202C050020D00000209B
:104530009800002000BFFEE77047000002480068B6
:10454000C0F30220704700000CED00E010B5002819
:1045500007DA0A07140E054A00F00F031B1FD45494
:1045600003E00A07130E024A135410BD18ED00E0D1
:1045700000E400E010B50248FDF71CFA10BD000091
:10458000C80700202DE9F05F07460E46D7F80090D7
:10459000C846C6EBC60107F13C0000EB8104D4E934
:1045A0000510884202D9012000F043B8D4E9050182
:1045B000451AA068A84200D2A568E81C4FEA900AF4
:1045C00015E0D4E90501451AA068A84200D2A56803
:1045D000E81C4FEA900AABB2F2B24846E16802F03A
:1045E0009FFEE0682844E060A0692844A06108F5C7
:1045F000106000EB4610806980B2504506D9D4E9BE
:104600000510884202D260690028DAD1D4E9050198
:1046100088420CD8012000FA06FB40F6340050F81E
:10462000080020EA0B0040F6340141F808000020A1
:10463000BAE730BCBDE8C09F704700002DE9F041EB
:1046400004460F4600255C48C06800F0030090B1A6
:104650005948C06800F003002168884209D12068E9
:1046600038B15548C068C0F30210401C61688842E8
:1046700033D0012531E02068012804D0022809D078
:1046800003281AD10DE04C48006800F0020000B980
:10469000012514E04848006800F4806000B9012555
:1046A0000DE04548006800F4003028B94248006831
:1046B00000F4802000B9012501E0012500BF00BF02
:1046C0005DB9D4E90010401E41EA00103A49C968BA
:1046D00021F0730108433849C860002D68D136487D
:1046E000006820F0806034490860FCF7EBFC064667
:1046F00006E0FCF7E7FC801B022801D9032505E052
:104700002D48006800F000600028F2D100BFCDBB4A
:104710006FB9A0680002E168090940EA41402649F2
:104720000969264A114008432349086120E0012F06
:104730000FD1A0680002218A0122C2EB510140EA98
:1047400041501D4909691E4A114008431A49086130
:104750000EE0A0680002217D0122C2EB510140EA77
:10476000416015490969174A114008431249086117
:104770001148006840F080600F490860FCF7A2FC17
:10478000064607E014E0FCF79DFC801B022801D9D7
:10479000032505E00848006800F000600028F2D01A
:1047A00000BF2DB904480069A169084302490861A6
:1047B0002846BDE8F081000000100240FF80FDFFA8
:1047C000FF809FFFFF80FFF92DE9F04104460F466F
:1047D00000255348C06800F0030090B15048C068FD
:1047E00000F003002168884209D1206838B14C48A4
:1047F000C068C0F30210401C6168884233D00125B4
:1048000031E02068012804D0022809D003281AD1F9
:104810000DE04348006800F0020000B9012514E0F3
:104820003F48006800F4806000B901250DE03C4875
:10483000006800F4003028B93948006800F480208E
:1048400000B9012501E0012500BF00BF5DB9D4E931
:104850000010401E41EA00103149C96821F073017F
:1048600008432F49C860002D56D12D48006820F01C
:1048700080502B490860FCF725FC064606E0FCF753
:1048800021FC801B022801D9032505E0244800688B
:1048900000F000500028F2D100BF75BB6FB9A068CE
:1048A0000002E168090940EA41401D4949691D4A81
:1048B000114008431A4948610EE0A0680002217CBB
:1048C0000122C2EB510140EA416015494969164A8B
:1048D00011400843124948611148006840F0805077
:1048E0000F490860FCF7EEFB064607E0FCF7EAFB21
:1048F000801B022802D9032506E00DE00848006865
:1049000000F000500028F1D000BF2DB904484069E4
:1049100061690843024948612846BDE8F08100000A
:1049200000100240FF80FDFFFF80FFF9F8B504464C
:1049300000262348806D00F0805018B1FDF76AFD15
:10494000054616E000BF1E48806D40F080501C49AF
:1049500088650846806D00F08050009000BF00BF61
:10496000FDF758FD05461648806D20F0805014492B
:104970008865B5F5007F07D1802C10D9A02C01D90E
:1049800002260CE001260AE0802C01D9032606E06D
:10499000802C01D1022602E0702C00D101260948AA
:1049A000006820F0070030430649086008460068A8
:1049B00000F00700B04201D00120F8BD0020FCE764
:1049C00000100240002002402DE9F04104460F464D
:1049D00015461E46D4F89082A819D8F8601288426D
:1049E00009D9212305223946204600F0CAFA4FF0A2
:1049F000FF30BDE8F0810020FBE70000F0B5044681
:104A00000E46D4F89032507800F0010060B10721D2
:104A1000598106E0481E81B21048475C03F10C0042
:104A200047540029F6D116E0D4F89402C06906EB89
:104A3000C60700EB87052879411D1079884200DC04
:104A40001179598105E0481E81B26F5C03F10C00B9
:104A500047540029F7D10020F0BD00005874000829
:104A600070B503460C4615460821D3F890225181B3
:104A700006E0481E81B20448465C02F10C00465430
:104A80000029F6D1002070BD6774000870B5034698
:104A90000C461546D3F890220821518106E0481EA5
:104AA00081B20448465C02F10C0046540029F6D15C
:104AB000002070BD5F74000870B505460E461446B0
:104AC0002078232845D00DDC1A2836D005DCB0B17B
:104AD00003281AD012285AD11DE01B2821D01E28E5
:104AE00055D124E02A2846D004DC252837D02828B0
:104AF0004DD13AE02F2844D05A2848D123E022460D
:104B00003146284600F065FA4AE0224631462846FA
:104B100000F0F4F944E0224631462846FFF76EFFE4
:104B20003EE022463146284600F04BFA38E0224665
:104B30003146284600F045FA32E022463146284602
:104B4000FFF7A4FF2CE0224631462846FFF788FFF6
:104B500026E022463146284600F08BF920E0224626
:104B60003146284600F045F91AE0224631462846EB
:104B700000F0CBF814E022463146284600F07AFADD
:104B80000EE022463146284600F04EFA08E0202387
:104B900005223146284600F0F4F94FF0FF3070BD91
:104BA00000BF0020FBE72DE9F04706460F46D6F888
:104BB0009042D4F86802B0F5007F02D2D4F86802BF
:104BC00001E04FF4007085B2B4F85E0295FBF0F09E
:104BD0001FFA80F8B4F85E12D4F86402B0FBF1F961
:104BE000D6F8940243464A4604F10C01D0F810C0AE
:104BF0003846E047002809DA1123042239463046B6
:104C000000F0BFF94FF0FF30BDE8F0872B4604F10C
:104C10000C028121304601F072F9D4F86402284474
:104C2000C4F86402D4F86802401BC4F868024FF468
:104C30000D700059411B4FF40D700151D4F86802FA
:104C400008B9032020720020DEE72DE9F047064670
:104C50000F46D6F89042D4F86802B0F5007F02D231
:104C6000D4F8680201E04FF4007085B2B4F85E0237
:104C700095FBF0F01FFA80F8B4F85E12D4F86402E5
:104C8000B0FBF1F9D6F8940243464A4604F10C0110
:104C9000D0F814C03846E047002809DA032304227C
:104CA0003946304600F06DF94FF0FF30BDE8F0872F
:104CB000D4F864022844C4F86402D4F86802401BA3
:104CC000C4F868024FF40D700059411B4FF40D7089
:104CD0000151D4F8680220B900213046FFF764F989
:104CE00011E0D4F86802B0F5007F02D2D4F868026F
:104CF00001E04FF4007085B22B4604F10C02012153
:104D0000304600F0DEFF0020D0E72DE9F0410646F6
:104D10000F461546D6F89042207A002861D14FF40C
:104D20000670005D00F0800080280BD040F2192052
:104D3000015D20230522304600F023F94FF0FF30BB
:104D4000BDE8F081D6F8940281683846884740B1C2
:104D50003A2302223946304600F013F94FF0FF3073
:104D6000EEE7A8780006E97840EA0140297940EAB0
:104D7000012069790843C4F86402287AE97940EA95
:104D80000120C4F868023946304604F519720CCA8D
:104D9000FFF71AFE002802DA4FF0FF30D0E70220BA
:104DA0002072B4F85E12D4F864024843C4F8640276
:104DB000B4F85E12D4F868024843C4F868024FF4AD
:104DC00005700059D4F8681288420AD040F21920C0
:104DD000015D20230522304600F0D3F84FF0FF306C
:104DE000AEE74FF40070608139463046FFF7DBFED6
:104DF000A6E72DE9F04105460E461746D5F8904244
:104E0000D5F8940204F25E22911C4368304698471C
:104E100048B13A2302223146284600F0B2F84FF05A
:104E2000FF30BDE8F081D4F86002401E000E207310
:104E3000D4F86002401E010C6173B4F86002401E99
:104E4000010AA17394F86002401EE073B4F85E0298
:104E500001162174B4F85E0201146174B4F85E02A4
:104E60000112A17494F85E12E174082060810020A0
:104E7000D7E72DE9FC4105460F469046D5F890420C
:104E8000002605E0002104F10C008155701C86B25B
:104E90000C2EF7D3D5F8940201AA69464368384628
:104EA000984748B13A2302223946284600F069F86B
:104EB0004FF0FF30BDE8FC810821E1730098401EEF
:104EC000010E21740098401E010C61740098401E70
:104ED000010AA1740098401EE07402212175BDF8FA
:104EE000040001146175BDF804000112A175BDF83C
:104EF0000400E0750C2060810020DBE770B50446FB
:104F00000D46D4F89012002305E0002601F10C00B4
:104F1000C654581CC3B2122BF7D3702008730C264A
:104F2000CE7491F85C0291F85D62B04220D091F8A5
:104F30005C6201F50F7010F836608E7391F85C6258
:104F400000EBC60046790E7691F85C6201F50F70B1
:104F500000EBC60006794E7691F85C02401C81F8A1
:104F60005C0291F85C02042802D1002081F85C0206
:104F7000122048811079122801D810794881002028
:104F800070BDF0B50446D4F8900290F85D6200F56B
:104F90000F7505F836201D02EEB290F85D7200F52F
:104FA0000F7505EBC7052E7190F85D526D1C80F8EA
:104FB0005D5290F85D52042D02D1002580F85D52BB
:104FC000F0BD10B503460C46D3F89012002048817E
:104FD00010BD2DE9F04105460E461746D5F8904222
:104FE0004FF40570005958B140F21920015D20239B
:104FF00005222846FFF7C5FF4FF0FF30BDE8F081DE
:10500000D5F8940281683046884748B13A23022295
:1050100031462846FFF7B5FF05202072801FEDE7D7
:105020000020608100BFE9E72DE9F04105460F4609
:105030001646D5F89042707800F00200022809D197
:105040002423052239462846FFF79BFF4FF0FF3007
:10505000BDE8F0813946284604F519720CCAFFF7FD
:10506000B3FC002802DA4FF0FF30F1E70020608146
:1050700000BFEDE72DE9F04106460F461546D6F88C
:105080009042207A00286ED14FF40670005D00F047
:10509000800080280BD140F21920015D20230522D9
:1050A0003046FFF76EFF4FF0FF30BDE8F081D6F8D5
:1050B000940281683846884740B13A230222394633
:1050C0003046FFF75EFF4FF0FF30EEE7D6F8940270
:1050D000C1683846884740B1272302223946304606
:1050E000FFF74FFF4FF0FF30DFE7A8780006E978C1
:1050F00040EA0140297940EA012069790843C4F86F
:105100006402287AE97940EA0120C4F86802394645
:10511000304604F519720CCAFFF756FC002802DA73
:105120004FF0FF30C1E7B4F85E12D4F86402484390
:10513000C4F86402B4F85E12D4F868024843C4F8B4
:1051400068024FF405700059D4F8681288420BD0F9
:1051500040F21920015D202305223046FFF711FFA0
:105160004FF0FF30A1E715E0D4F86802B0F5007FFA
:1051700002D2D4F8680201E04FF400701FFA80F800
:1051800001202072434604F10C020121304600F058
:1051900098FD04E039463046FFF757FD85E70020CB
:1051A00083E7000010B50248FEF732F810BD00009A
:1051B0004010002010B50248FEF72AF810BD00008C
:1051C000A410002010B50248FEF722F810BD000020
:1051D0006803002070B50546AC6A0020A4F84600BC
:1051E000E0872046FEF712F870BD03464FF480308A
:1051F0000860C011108000207047002070470146F1
:10520000002070470146002070470146002070478B
:1052100010B50446002010BD10B50446002010BD96
:105220007047704710B500F001F810BD00B5B9B077
:10523000442128A8FAF7DDFF142123A8FAF7D9FFA3
:10524000882101A8FAF7D5FF1020289001202E9080
:1052500000202F906020309002203290012128A859
:10526000C162016328214163072181630221C16377
:105270000164FDF7C5FC08B1FBF7D4F80F202390BB
:10528000032024900020259026902790042123A815
:10529000FDF732FB08B1FBF7C5F81248019000207A
:1052A000179021904FF080601C9001200290012106
:1052B000039118210491072105910221069107917C
:1052C0000105089101A8FDF7ADF808B1FBF7AAF8B0
:1052D0004FF40070FDF74EF808B1FBF7A3F839B0B2
:1052E00000BD0000002101001048006840F470007B
:1052F0000E4908600E48006840F001000C49086043
:1053000000208860084600680A490840084908608B
:105310008814C8600846006820F4802008600020D7
:105320008861C803014980390860704788ED00E052
:1053300000100240FFFFF6EA10B50248FEF719F927
:1053400010BD00000811002010B50268294B9842DA
:105350000ED0B0F1804F0BD0274B984208D0274B8E
:10536000984205D0264B984202D0264B984203D152
:1053700022F070024B681A431E4B984217D0B0F1CE
:10538000804F14D01C4B984211D01C4B98420ED029
:105390001B4B98420BD01B4B984208D01A4B98429B
:1053A00005D01A4B984202D0194B984203D122F4EF
:1053B0004072CB681A4322F080034C6943EA04022E
:1053C00002608B68C3620B6883620A4B98420BD001
:1053D0000C4B984208D00C4B984205D00B4B98428E
:1053E00002D00B4B984201D10B6903630123436147
:1053F00010BD0000002C01400004004000080040E7
:10540000000C0040003401400040014000440140D5
:105410000048014070B504460D46D4F88C02294678
:10542000426820469047002070BD70B504460D4686
:1054300094F87402012804D0022803D003280CD168
:1054400001E000BF00BF6888012805D10020C4F832
:105450007C02204600F04AF804E02946204600F08D
:105460001BF800BF00BF70BD70B506460C46154660
:105470002B4622460021304600F023FC002070BD60
:1054800070B506460C4615462B462246002130468E
:1054900000F035FD002070BD70B504460D4680213A
:1054A000204600F0E2FC0021204600F0DEFC70BD4A
:1054B00010B504460520C4F86C0200231A461946AC
:1054C000204600F0FEFB002010BD70B504460E46DD
:1054D00015460220C4F86C02E56125622B4632466F
:1054E0000021204600F00BFD002070BD10B50446E1
:1054F0000420C4F86C0200231A461946204600F026
:10550000FEFC002010BD000070B505460C462DB90C
:105510002246064906A000F0AFF904E022460349FE
:1055200003A000F0A9F9014870BD0000400E002062
:105530004D534320436F6E66696700000246122098
:1055400008800148704700007400002070B50546CF
:105550000C462DB92246064906A000F08DF904E05C
:105560002246034903A000F087F9014870BD0000FE
:10557000400E00204D534320496E7465726661638E
:1055800065000000024604200880014870470000C2
:105590009400002070B505460C462246024903A03F
:1055A00000F06AF9004870BD400E002053544D6968
:1055B00063726F656C656374726F6E69637300000C
:1055C00070B505460C462DB92246064906A000F0E6
:1055D00053F904E02246034903A000F04DF90148C5
:1055E00070BD0000400E002053544D3332204D61F9
:1055F00073732053746F72616765000070B5054660
:105600000C462DB92246064906A000F035F904E003
:105610002246034903A000F02FF9014870BD0000A5
:10562000400E0020303030303030303030303141BA
:105630000000000002460C2008800148704700006E
:105640008800002070B504460D46E888012804D083
:1056500029462046FFF720FF1EE094F87402012837
:1056600004D0022803D0032810D109E000BF002095
:10567000A060012204F108012046FFF726FF0AE09E
:105680000122211D2046FFF720FF04E02946204685
:10569000FFF702FF00BF00BF70BDF8B504460E461D
:1056A0007088001206286ED006DC012810D002286F
:1056B00016D0032870D127E0072874D00F28F9D11D
:1056C000207CD4F88812CA696946904705467FE075
:1056D000207CD4F888120A6869469047054677E02E
:1056E000207C40B9D4F88C02816A68468847054618
:1056F0000221697007E0D4F88C02C16A68468847C5
:1057000005460221697063E0B078062834D2DFE8EC
:1057100000F0030B131B232B207CD4F888124A685B
:105720006946904705462CE0207CD4F888128A68A8
:1057300069469047054624E0207CD4F88812CA6860
:105740006946904705461CE0207CD4F888120A6917
:1057500069469047054614E0207CD4F888124A69CF
:105760006946904705460CE0207CD4F888128A6987
:1057700069469047054604E031462046FFF78CFE17
:10578000F8BD00BF24E0207C40B9D4F88C02416B06
:105790006846884705461BE015E004E03146204690
:1057A000FFF77AFEECE7207C40B9D4F88C02016B5D
:1057B0006846884705460721697009E0314620465A
:1057C000FFF76AFEDCE731462046FFF765FED7E7C4
:1057D00000BFBDF8000088B1F08878B1F088BDF84E
:1057E0000010884202DDBDF8000000E0F088009063
:1057F000BDF8002029462046FFF767FEF08810B963
:105800002046FFF773FE00BFBAE70146002002E022
:10581000421CD0B2491C0A78002AF9D1704770B5F1
:1058200004460D4694F87402012804D0022803D0DF
:1058300003281AD101E000BF00BFE888022804D085
:1058400029462046FFF728FE14E00120E060D4F846
:105850007C0218B1E06840F00200E060022204F12E
:105860000C012046FFF731FE04E029462046FFF7F1
:1058700013FE00BF00BF70BD2DE9F04104460D4688
:1058800017460026FCB12046FFF7BFFF022101EBBF
:10589000400038803A783046711CCEB22A54032238
:1058A0003046711CCEB22A540AE014F8012B30465F
:1058B000711CCEB22A5400223046711CCEB22A543A
:1058C00020780028F1D1BDE8F08170B504460D467E
:1058D00016460CB9022070BDD4F88C0210B100201D
:1058E000C4F88C020DB1C4F88852012084F8740207
:1058F0002670204600F05CF90020ECE70146D1F864
:105900009822906A012801D1002070470220FCE70C
:105910002DE9F04104460D46002600272946D4F81B
:105920009802FBF704FF064636B1012E06D0022E80
:1059300006D0032E08D105E0002707E0022705E086
:10594000012703E0022701E0022700BF00BF38461D
:10595000BDE8F0812DE9F04104460D460026002700
:105960002946D4F89802FBF7ADFE064636B1012E63
:1059700006D0022E06D0032E08D105E0002707E04E
:10598000022705E0012703E0022701E0022700BF0C
:1059900000BF3846BDE8F0812DE9F04104460E46CF
:1059A0001746002E64D104F11405D4F86C020228C5
:1059B00048D1D5E90301884210D9D5E90301401A3D
:1059C000E860A88982B239462046FFF759FD0023D6
:1059D0001A461946204600F074F93EE02969A86885
:1059E000B0FBF1F201FB1200B8B92969A86888423E
:1059F00013D3A868D4F8701288420ED20022114640
:105A00002046FFF73DFD0020C4F8700200231A462F
:105A10001946204600F055F91FE0D4F88C02C06802
:105A200040B194F87402032804D1D4F88C02C16800
:105A3000204688478021204600F017FA2046FFF7CD
:105A400037FD0AE0D4F86C02042802D0D4F86C02C6
:105A500018B98021204600F008FA94F8780201284D
:105A600018D1204600F00BFC002084F8780211E0E9
:105A7000D4F88C02406950B194F87402032806D11E
:105A8000D4F88C02314642692046904702E0022059
:105A9000BDE8F0810020FBE72DE9F04104460E4609
:105AA0001746A6BB04F5A075D4F86C02032825D1CF
:105AB000D5E90301884210D9D5E90301401AE8600D
:105AC000D5E90301884201D2E86800E0286982B282
:105AD00039462046FFF7C8FC2CE0D4F88C02006958
